{
    "abi": [
        {
            "type": "constructor",
            "inputs": [],
            "stateMutability": "payable"
        },
        {
            "type": "function",
            "name": "brand",
            "inputs": [],
            "outputs": [
                {
                    "name": "",
                    "type": "address",
                    "internalType": "address"
                }
            ],
            "stateMutability": "view"
        },
        {
            "type": "function",
            "name": "endTime",
            "inputs": [],
            "outputs": [
                {
                    "name": "",
                    "type": "uint256",
                    "internalType": "uint256"
                }
            ],
            "stateMutability": "view"
        },
        {
            "type": "function",
            "name": "finalized",
            "inputs": [],
            "outputs": [
                {
                    "name": "",
                    "type": "bool",
                    "internalType": "bool"
                }
            ],
            "stateMutability": "view"
        },
        {
            "type": "function",
            "name": "getBalance",
            "inputs": [],
            "outputs": [
                {
                    "name": "",
                    "type": "uint256",
                    "internalType": "uint256"
                }
            ],
            "stateMutability": "view"
        },
        {
            "type": "function",
            "name": "setPayouts",
            "inputs": [
                {
                    "name": "users",
                    "type": "address[]",
                    "internalType": "address[]"
                },
                {
                    "name": "amounts",
                    "type": "uint256[]",
                    "internalType": "uint256[]"
                }
            ],
            "outputs": [],
            "stateMutability": "nonpayable"
        }
    ],
    "bytecode": {
        "object": "0x6080604052335f5f6101000a81548173ffffffffffffffffffffffffffffffffffffffff021916908373ffffffffffffffffffffffffffffffffffffffff16021790555062093a8042605091906090565b60018190555060bc565b5f819050919050565b7f4e487b71000000000000000000000000000000000000000000000000000000005f52601160045260245ffd5b5f609882605a565b915060a183605a565b925082820190508082111560b65760b56063565b5b92915050565b610a1f806100c95f395ff3fe608060405234801561000f575f5ffd5b5060043610610055575f3560e01c806312065fe0146100595780632d9fff01146100775780633197cbb6146100955780635362e464146100b3578063b3f05b97146100cf575b5f5ffd5b6100616100ed565b60405161006e9190610466565b60405180910390f35b61007f6100f4565b60405161008c91906104be565b60405180910390f35b61009d610118565b6040516100aa9190610466565b60405180910390f35b6100cd60048036038101906100c89190610595565b61011e565b005b6100d761043c565b6040516100e4919061062d565b60405180910390f35b5f47905090565b5f5f9054906101000a900473ffffffffffffffffffffffffffffffffffffffff1681565b60015481565b5f5f9054906101000a900473ffffffffffffffffffffffffffffffffffffffff1673ffffffffffffffffffffffffffffffffffffffff163373ffffffffffffffffffffffffffffffffffffffff16146101ac576040517f08c379a00000000000000000000000000000000000000000000000000000000081526004016101a3906106a0565b60405180910390fd5b6001544210156101f1576040517f08c379a00000000000000000000000000000000000000000000000000000000081526004016101e890610708565b60405180910390fd5b60025f9054906101000a900460ff1615610240576040517f08c379a000000000000000000000000000000000000000000000000000000000815260040161023790610770565b60405180910390fd5b818190508484905014610288576040517f08c379a000000000000000000000000000000000000000000000000000000000815260040161027f906107d8565b60405180910390fd5b5f5f90505f5f90505b838390508110156102d0578383828181106102af576102ae6107f6565b5b90506020020135826102c19190610850565b91508080600101915050610291565b5047811115610314576040517f08c379a000000000000000000000000000000000000000000000000000000000815260040161030b906108cd565b60405180910390fd5b600160025f6101000a81548160ff0219169083151502179055505f5f90505b85859050811015610434575f868683818110610352576103516107f6565b5b90506020020160208101906103679190610915565b73ffffffffffffffffffffffffffffffffffffffff168585848181106103905761038f6107f6565b5b905060200201356040516103a39061096d565b5f6040518083038185875af1925050503d805f81146103dd576040519150601f19603f3d011682016040523d82523d5f602084013e6103e2565b606091505b5050905080610426576040517f08c379a000000000000000000000000000000000000000000000000000000000815260040161041d906109cb565b60405180910390fd5b508080600101915050610333565b505050505050565b60025f9054906101000a900460ff1681565b5f819050919050565b6104608161044e565b82525050565b5f6020820190506104795f830184610457565b92915050565b5f73ffffffffffffffffffffffffffffffffffffffff82169050919050565b5f6104a88261047f565b9050919050565b6104b88161049e565b82525050565b5f6020820190506104d15f8301846104af565b92915050565b5f5ffd5b5f5ffd5b5f5ffd5b5f5ffd5b5f5ffd5b5f5f83601f840112610500576104ff6104df565b5b8235905067ffffffffffffffff81111561051d5761051c6104e3565b5b602083019150836020820283011115610539576105386104e7565b5b9250929050565b5f5f83601f840112610555576105546104df565b5b8235905067ffffffffffffffff811115610572576105716104e3565b5b60208301915083602082028301111561058e5761058d6104e7565b5b9250929050565b5f5f5f5f604085870312156105ad576105ac6104d7565b5b5f85013567ffffffffffffffff8111156105ca576105c96104db565b5b6105d6878288016104eb565b9450945050602085013567ffffffffffffffff8111156105f9576105f86104db565b5b61060587828801610540565b925092505092959194509250565b5f8115159050919050565b61062781610613565b82525050565b5f6020820190506106405f83018461061e565b92915050565b5f82825260208201905092915050565b7f4e6f74206272616e6400000000000000000000000000000000000000000000005f82015250565b5f61068a600983610646565b915061069582610656565b602082019050919050565b5f6020820190508181035f8301526106b78161067e565b9050919050565b7f43616d706169676e206e6f7420656e64656400000000000000000000000000005f82015250565b5f6106f2601283610646565b91506106fd826106be565b602082019050919050565b5f6020820190508181035f83015261071f816106e6565b9050919050565b7f416c72656164792066696e616c697a65640000000000000000000000000000005f82015250565b5f61075a601183610646565b915061076582610726565b602082019050919050565b5f6020820190508181035f8301526107878161074e565b9050919050565b7f4c656e677468206d69736d6174636800000000000000000000000000000000005f82015250565b5f6107c2600f83610646565b91506107cd8261078e565b602082019050919050565b5f6020820190508181035f8301526107ef816107b6565b9050919050565b7f4e487b71000000000000000000000000000000000000000000000000000000005f52603260045260245ffd5b7f4e487b71000000000000000000000000000000000000000000000000000000005f52601160045260245ffd5b5f61085a8261044e565b91506108658361044e565b925082820190508082111561087d5761087c610823565b5b92915050565b7f4e6f7420656e6f756768204554480000000000000000000000000000000000005f82015250565b5f6108b7600e83610646565b91506108c282610883565b602082019050919050565b5f6020820190508181035f8301526108e4816108ab565b9050919050565b6108f48161049e565b81146108fe575f5ffd5b50565b5f8135905061090f816108eb565b92915050565b5f6020828403121561092a576109296104d7565b5b5f61093784828501610901565b91505092915050565b5f81905092915050565b50565b5f6109585f83610940565b91506109638261094a565b5f82019050919050565b5f6109778261094d565b9150819050919050565b7f5472616e73666572206661696c656400000000000000000000000000000000005f82015250565b5f6109b5600f83610646565b91506109c082610981565b602082019050919050565b5f6020820190508181035f8301526109e2816109a9565b905091905056fea264697066735822122025f2eb72441b5ace5b621184d0abee3006c853eaf0f4d88797bc849bbc5cb77164736f6c634300081e0033",
        "linkReferences": {}
    },
    "methodIdentifiers": {
        "brand()": "2d9fff01",
        "endTime()": "3197cbb6",
        "finalized()": "b3f05b97",
        "getBalance()": "12065fe0",
        "setPayouts(address[],uint256[])": "5362e464"
    },
    "id": 16
}